:020000040000FA
:100000000C9458000C9480000C9480000C94800098
:100010000C9480000C9480000C9408160C948000C2
:100020000C9480000C9480000C9480000C94800050
:100030000C9480000C9480000C9480000C94800040
:100040000C9499070C9480000C9467070C9441075A
:100050000C9480000C9480000C9480000C94800020
:100060000C94E3070C948000000000002500280099
:100070002B00040404040404040402020202020229
:10008000030303030303010204081020408001025C
:1000900004081020010204081020000000080002DB
:1000A00001000003040700000000000000000B1620
:1000B00011241FBECFEFD8E0DEBFCDBF11E0A0E01E
:1000C000B1E0EAE8F0E302C005900D92AA3BB10767
:1000D000D9F723E0AAEBB1E001C01D92A13CB20721
:1000E000E1F710E0C8E5D0E004C02197FE010E94CE
:1000F0002618C735D107C9F70E9455160C94431826
:100100000C940000AF92BF92CF92DF92EF92FF92D9
:100110000F931F93CF93DF936C017B018B01040F2F
:10012000151FEB015E01AE18BF08C017D10759F0CB
:100130006991D601ED91FC910190F081E02DC6010D
:100140000995892B79F7C501DF91CF911F910F9107
:10015000FF90EF90DF90CF90BF90AF900895FC019B
:10016000538D448D252F30E0842F90E0821B930B1C
:10017000541710F0CF96089501970895FC01918DC2
:10018000828D981761F0A28DAE0FBF2FB11D5D96C5
:100190008C91928D9F5F9F73928F90E008958FEF67
:1001A0009FEF0895FC01918D828D981731F0828D1B
:1001B000E80FF11D858D90E008958FEF9FEF089572
:1001C000FC01918D228D892F90E0805C9F4F821BD6
:1001D00091098F739927089588E093E00E94E000C9
:1001E00021E0892B09F420E0822F08950E94EC0081
:1001F00081110C940000089580E090E0892B11F0AB
:100200000C94F6000895FC01A48DA80FB92FB11D20
:10021000A35ABF4F2C91848D90E001968F7399273C
:10022000848FA689B7892C93A089B1898C9183701A
:1002300080648C93938D848D981306C00288F38913
:10024000E02D80818F7D80830895EF92FF920F9340
:100250001F93CF93DF93EC0181E0888F9B8D8C8D72
:1002600098131AC0E889F989808185FF15C09FB766
:10027000F894EE89FF896083E889F9898081837029
:10028000806480839FBF81E090E0DF91CF911F91D8
:100290000F91FF90EF900895F62E0B8D10E00F5FF9
:1002A0001F4F0F731127E02E8C8D8E110CC00FB6CF
:1002B00007FCFACFE889F989808185FFF5CFCE0167
:1002C0000E940301F1CFEB8DEC0FFD2FF11DE35ADE
:1002D000FF4FF0829FB7F8940B8FEA89FB898081EA
:1002E0008062CFCFCF93DF93EC01888D8823B9F064
:1002F000AA89BB89E889F9898C9185FD03C0808131
:1003000086FD0DC00FB607FCF7CF8C9185FFF2CFAD
:10031000808185FFEDCFCE010E940301E9CFDF91FF
:10032000CF91089590E0FC01E656FF4F2491FC0127
:10033000EA57FF4F3491FC01EE58FF4FE491EE2352
:10034000C9F0222339F0233001F1A8F4213019F14A
:10035000223029F1F0E0EE0FFF1FE859FF4FA59181
:10036000B4918FB7F894EC91611126C030953E237B
:100370003C938FBF08952730A9F02830C9F024306E
:1003800049F7809180008F7D03C0809180008F7736
:1003900080938000DFCF84B58F7784BDDBCF84B5B9
:1003A0008F7DFBCF8091B0008F778093B000D2CF4C
:1003B0008091B0008F7DF9CF3E2BDACF8E508064D4
:1003C00080937C0080917A00806480937A00809191
:1003D0007A0086FDFCCF8091780090917900089595
:1003E0003FB7F8948091A8029091A902A091AA0227
:1003F000B091AB0226B5A89B05C02F3F19F001961E
:10040000A11DB11D3FBFBA2FA92F982F8827BC016E
:10041000CD01620F711D811D911D42E0660F771F96
:10042000881F991F4A95D1F708958F929F92AF9296
:10043000BF92CF92DF92EF92FF924B015C010E943C
:10044000F0016B017C010E94F0016C197D098E099D
:100450009F09683E734081059105A8F321E0821A47
:100460009108A108B10888EEC80E83E0D81EE11CEF
:10047000F11C81149104A104B10429F7FF90EF90BD
:10048000DF90CF90BF90AF909F908F900895209174
:100490005702260F3327331F21323105ECF4209108
:1004A0007D02FC0190E080E0243069F082E0089554
:1004B000A09157022191AC014B5C5D4FA40FB52F69
:1004C000B11D2C930196861798F380915702680FFF
:1004D0006093570280E0089581E0089510927D02B4
:1004E00081E080937F0210927E0261E082E10E94AF
:1004F000920161E083E10E949201E9EBF0E08081EA
:100500008E7F808380818D7F808388E48093B80094
:1005100085E48093BC000895CF93DF9391E090939E
:1005200034028823B9F0C091B800D091BA0080910C
:10053000BC008A7B8093BC0060E082E10E94920153
:1005400060E083E10E9492010E946E02D093BA00A3
:10055000C093B800DF91CF9108950895089508954C
:10056000E0912C0280912B02E81730F4F0E0E55F77
:10057000FD4F808190E008958FEF9FEF0895909157
:100580002C0280912B022FEF3FEF981748F4E92FB0
:10059000F0E0E55FFD4F208130E09F5F90932C02FB
:1005A000C901089580912B0290912C02891B990B0F
:1005B0000895CF92DF92EF92FF920F931F93CF9304
:1005C000DF937C01CB018A0120910A02222389F06A
:1005D000EB016B01C40ED51ECC15DD0569F06991E8
:1005E000D701ED91FC910190F081E02DC7010995B3
:1005F000F3CF642F0E944702C801DF91CF911F9172
:100600000F91FF90EF90DF90CF900895CF93DF93FD
:100610001F92CDB7DEB7698320910A022223F9F039
:1006200020912D02203258F021E030E0FC0133838C
:10063000228390E080E00F90DF91CF910895809128
:100640002E02E82FF0E0E651FE4F998190838F5FF4
:1006500080932E0280932D0281E090E0ECCF61E048
:10066000CE0101960E944702F7CFCF92DF92EF9220
:10067000FF920F931F93CF93DF93FC01C48121E07E
:1006800020930A02C093E90110922E0210922D02CB
:100690008385682B85EA93E00E940603D0912D02A2
:1006A000D13208F092C00E94F0016B017C01809170
:1006B0007D02811165C082E080937D0281E080939C
:1006C0007F028FEF80937C021092A102D093A00250
:1006D000AAEEB1E0E0E8F2E080E0D81385C0109225
:1006E000A2028091A202CC0FC82BC093A2028091DB
:1006F0007E02813009F07CC010927E020E94F001DF
:100700006B017C018091A2028093BB00809130023A
:1007100090913102A0913202B0913302892B8A2B41
:100720008B2B99F00E94F001009130021091310260
:1007300020913202309133026C197D098E099F0994
:100740000617170728073907E0F18091BC0083FDE1
:10075000D9CF85EC8093BC000E94F0016B017C0135
:1007600080917D02823009F445C080917C028F3FE8
:1007700061F180917C02803241F180917C0225C040
:100780008091300290913102A0913202B0913302F7
:10079000892B8A2B8B2B09F48ACF0E94F0010091C0
:1007A00030021091310220913202309133026C19E3
:1007B0007D098E099F09061717072807390708F0D2
:1007C00076CF80912F020E948C0210922E021092FE
:1007D0002D0210920A02DF91CF911F910F91FF908D
:1007E000EF90DF90CF9008959D9191938F5F75CF9B
:1007F00085EEB0CF8091300290913102A09132020B
:10080000B0913302892B8A2B8B2B09F4A9CF0E943C
:10081000F0010091300210913102209132023091AA
:1008200033026C197D098E099F09061717072807DF
:10083000390708F095CFC5CF089590E080E008957E
:100840000F931F93CF938C01C62F0E9435036C2FFB
:100850006460C8010E9435036C2F6B7FC8010E9441
:10086000350383EC90E00197F1F7CF911F910F9141
:1008700008950F931F93CF93DF938C01D62FC42F2E
:10088000607F642B0E94200480E1D89FB001112476
:100890006C2BC801DF91CF911F910F910C94200414
:1008A000CF93DF93CDB7DEB728970FB6F894DEBFAE
:1008B0000FBECDBF98E0E7E0F1E0DE0111960190B8
:1008C0000D929A95E1F79091BA03961708F46FEF9D
:1008D000262F30E0220F331F41E050E04C0F5D1F08
:1008E000240F351FF9016081680F606840E081EBDB
:1008F00093E028960FB6F894DEBF0FBECDBFDF9110
:10090000CF910C94390441E00E94390481E090E0D9
:100910000895FB0101900020E9F73197AF01461BD4
:10092000570BDC01ED91FC910280F381E02D0994DD
:100930004F925F926F927F92AF92BF92CF92DF926F
:10094000EF92FF920F931F93CF93DF93CDB7DEB754
:10095000A1970FB6F894DEBF0FBECDBF5C016A0150
:100960007B01F7FE47C0DC01ED91FC910190F08125
:10097000E02D6DE209958C0122273327A9012C195E
:100980003D094E095F0919A2FE01B1967F019AE067
:10099000492E512C612C712CCA01B901A30192017D
:1009A0000E94F517605DD7016E937D012115310519
:1009B0004105510589F790E080E0109721F0BD01D5
:1009C000C5010E948904800F911FA1960FB6F8946B
:1009D000DEBF0FBECDBFDF91CF911F910F91FF9072
:1009E000EF90DF90CF90BF90AF907F906F905F902F
:1009F0004F900895AB01960119A28E010F5D1F4F14
:100A00008AE0C82ED12CE12CF12CCA01B901A70132
:100A100096010E94F517605DF80162938F01211520
:100A200031054105510589F790E080E0309769F282
:100A3000BF01C5010E948904C8CF85ED8093BC0029
:100A40008091300290913102A0913202B091330234
:100A50000796A11DB11D23E0B695A795979587959B
:100A60002A95D1F72091BC0024FD03C010927D028D
:100A7000089540913002509131026091320270919C
:100A80003302452B462B472B69F30097A105B1058F
:100A900041F025E32A95F1F700000197A109B1097A
:100AA000E1CF80912F020C948C02CF93DF9300D082
:100AB00000D0CDB7DEB788248A9483E0982EA12C8D
:100AC000B12C94EFE92EFF24F3944FEF5FEFBE01BA
:100AD0006F5F7F4F8091BE019091BF010E9408100F
:100AE000813009F083C06FE371E088E093E00E94F9
:100AF000890449815A81052E000C660B770B88E02A
:100B000093E00E94980465E471E088E093E00E941D
:100B100089044B815C81052E000C660B770B88E005
:100B200093E00E9498046EE471E088E093E00E94F4
:100B3000890489819A81892B79F52B813C812E9DAD
:100B4000C0012F9D900D3E9D900D112497FF02C076
:100B500081509C4F092F05950595192F110F110BE9
:100B600060E080E00E94500461E571E081EB93E079
:100B70000E94890460E087E00E945004A801110FE0
:100B8000660B770B81EB93E00E94980469E571E0B6
:100B900081EB93E00E94890489819A81019731F564
:100BA000AB81BC812FEF30E00E942C18A50194018D
:100BB0000E94D61729013A0161E080E00E945004AA
:100BC0006CE571E081EB93E00E94890461E087E0CD
:100BD0000E945004B301A20181EB93E00E949804AB
:100BE00065E671E081EB93E00E9489040E94D60CD7
:100BF0006CCFCF93DF9300D000D0CDB7DEB701E04C
:100C000010E01A8309838FE00E94DE019C838B83AE
:100C1000BE016F5F7F4F8091BE019091BF010E9426
:100C20005C0F69E671E088E093E00E9489046EE45D
:100C300071E088E093E00E9489040E94D60CE1CF25
:100C4000CF93DF9300D000D0CDB7DEB71A821982E0
:100C50008EE00E94DE019C838B83BE016F5F7F4F1D
:100C60008091BE019091BF010E945C0F63E771E02B
:100C700088E093E00E9489046EE471E088E093E0EC
:100C80000E9489040E94D60CE1CF0F931F93CF934B
:100C9000DF93E0911803F091190382E08083E091E3
:100CA0001403F09115031082E0911603F0911703DD
:100CB0008FEC808310922003E0911C03F0911D03C0
:100CC00086E08083E0911A03F0911B0380818061AC
:100CD0008083E0911A03F0911B03808188608083F8
:100CE000E0911A03F0911B03808180688083E0917A
:100CF0001A03F0911B0380818F7D808310922C0258
:100D000010922B0210922E0210922D020E946E025F
:100D10008DEA92E090935602809355028EEA92E01B
:100D200090935A02809359021092B6038091BA03AD
:100D3000823018F098E09093B6039091BB0399230A
:100D400039F0813029F48091B60384608093B60332
:100D500062E370E080E090E00E9415026091BC03C5
:100D600081EB93E00E94350368EE73E080E090E051
:100D70000E94150260E381EB93E00E942004CBE423
:100D8000D6E4CE010197F1F760E381EB93E00E9496
:100D900020042197F1F760E381EB93E00E942004A7
:100DA00083E592E00197F1F760E281EB93E00E9426
:100DB00020046091B603606240E081EB93E00E9402
:100DC000390414E01093B70340E06CE081EB93E04A
:100DD0000E94390440E061E081EB93E00E94390415
:100DE000CBE3DFE1CE010197F1F782E08093B80316
:100DF00040E066E081EB93E00E94390440E062E06D
:100E000081EB93E00E9439042197F1F789E490E0A7
:100E10000E94FC13EC01009759F081969983888316
:100E20008AE08B8F1C8FCE010E94A60C18A21F8E09
:100E3000D093BF01C093BE01CD2BE9F010E000E0DC
:100E400022E040E850E06FE871E085E595E00E941F
:100E50001A1421E040E850E06BE971E080E296E08E
:100E60000E941A1421E040E850E06AEA71E089EF3C
:100E700095E00E941A14DF91CF911F910F910C946D
:100E800047151F920F920FB60F9211242F933F9385
:100E90004F935F936F937F938F939F93AF93BF9382
:100EA000EF93FF9388E093E00E940301FF91EF919D
:100EB000BF91AF919F918F917F916F915F914F9172
:100EC0003F912F910F900FBE0F901F9018951F927A
:100ED0000F920FB60F9211242F938F939F93EF933E
:100EE000FF93E0911803F09119038081E0911E03B4
:100EF000F0911F0382FD1BC09081809121038F5FC1
:100F00008F7320912203821741F0E0912103F0E0DA
:100F1000E85FFC4F958F80932103FF91EF919F91A4
:100F20008F912F910F900FBE0F901F901895808179
:100F3000F4CF1F920F920FB60F9211242F933F936D
:100F40008F939F93AF93BF938091A4029091A5023A
:100F5000A091A602B091A7023091A30223E0230F33
:100F60002D3758F50196A11DB11D2093A302809342
:100F7000A4029093A502A093A602B093A702809129
:100F8000A8029091A902A091AA02B091AB02019689
:100F9000A11DB11D8093A8029093A902A093AA025B
:100FA000B093AB02BF91AF919F918F913F912F91E1
:100FB0000F900FBE0F901F90189526E8230F0296F2
:100FC000A11DB11DD2CF1F920F920FB60F92112407
:100FD0002F933F934F935F936F937F938F939F9341
:100FE000AF93BF93EF93FF938091B900887F8036D2
:100FF00009F44AC0F0F5883209F4A7C018F5803129
:1010000009F49BC0B8F4882309F4F9C0883009F4C6
:1010100094C0FF91EF91BF91AF919F918F917F917C
:101020006F915F914F913F912F910F900FBE0F9055
:101030001F901895883109F488C0803251F7809349
:101040007C0214C0803409F49DC040F48033B9F3AD
:101050008833F9F680937C0285ECB0C0803509F4C2
:1010600085C0883509F496C0883499F60E941D051C
:10107000D0CF883909F48CC038F5883729F050F47E
:10108000883611F0803729F683E080937D02109234
:101090007B0257C0883809F47BC0803919F080384A
:1010A00009F0B7CF80917B02803208F071C0E091E7
:1010B0007B0281E08E0F80937B028091BB00F0E089
:1010C000E55AFD4F80833DC0803B39F0E0F4803A23
:1010D00009F479C0883A09F09CCF84E080937D02BE
:1010E0001092580210925702E0915502F091560268
:1010F00009958091570281110FC081E080935702BA
:101100001092350209C0803C09F4A6CF883C09F44E
:10111000A3CF883B09F07DCFE091580281E08E0F8C
:1011200080935802F0E0EB5CFD4F80818093BB0020
:10113000909158028091570229C08091A202809319
:10114000BB0085EC8093BC0064CF9091A10280919C
:10115000A002981758F5E091A10281E08E0F8093CC
:10116000A102F0E0E058FD4F8081E9CFE091A102BB
:1011700081E08E0F8093A1028091BB00F0E0E058E7
:10118000FD4F80839091A1028091A0029817C8F230
:1011900085E8D8CFE091A10281E08E0F8093A10273
:1011A0008091BB00F0E0E058FD4F808380917F028A
:1011B00081115CCF81E080937E0284EA8093BC0041
:1011C00010927D0226CF85EC8093BC0010927D02A8
:1011D00080917B02803230F4E0917B02F0E0E55AAE
:1011E000FD4F108260917B0270E0E0915902F09116
:1011F0005A028BE592E0099510927B020ACF109279
:101200007C0234CFE091AE02F091AF028081811177
:1012100007C08FEF9FEF9093E0018093DF01089567
:10122000E091AE02F091AF020580F681E02D808161
:101230009181F1CFFC01DB010FB6F8940F92409140
:10124000E0025091E1022D913C9111972F3F32071E
:1012500011F1818192816091E2027081761749F0EB
:101260004817590730F01D921C9281E00F900FBE75
:101270000895481B590B42175307A8F7241B350B39
:101280002D933C938091E20280838091E0029091C3
:10129000E1029283818380E0E9CFCF93DF93DC0189
:1012A0001596ED91FC910680F781E02DA489B58912
:1012B0008685978520893189EC013D832C83C089FF
:1012C000D1899B838A83CF010C9611962D913C91F5
:1012D00012972817390721F41296DC93CE931197B1
:1012E000158A148A2C9121502C932091DD01211113
:1012F00057C0A285B3858481958126813781EC0111
:101300003D832C83C681D7819B838A83CF0102963C
:1013100011962D913C9112972817390721F41296B6
:10132000DC93CE931197138612862C9121502C9327
:10133000C689209107032C1710F4C093070329E0F6
:101340002C9FE0011124CD51DD4F0980DA81C02DA1
:10135000D583C4834C815D8157834683AC81BD8135
:1013600013969C938E9312979D838C83A689A29F3C
:10137000D0011124AD51BD4FB387A2878C918F5FEF
:101380008C93A091BA01B091BB01968956968C912D
:10139000891730F581E08093DC01DF91CF910895CA
:1013A000A091C302B091C402B787A68714962D916D
:1013B0003C911597318B208B1496CD91DC9115972C
:1013C0009B838A8315969C938E93149782EC92E06C
:1013D000958B848B8091C2028F5F8093C202D1CFA4
:1013E00080E0DBCF0FB6F8940F928091E0029091ED
:1013F000E1020F900FBE08958091DD018F5F809311
:10140000DD0108950FB6F8940F92FC01928D0F90B4
:101410000FBE81E0911180E00895CF93DF93FC012E
:10142000A085B1858281938124813581EC013D8342
:101430002C83C481D5819B838A8311968D919C9145
:1014400012978E179F0721F41296DC93CE93119773
:10145000118610868C9181508C938C91DF91CF9165
:1014600008950F931F93CF93DF938C01FB0180812D
:101470009181D80113968F3F9807F1F4E801AF816D
:10148000B88512968D919C91139793838283EC017A
:10149000FD83EC83B583A4831396FC93EE9312979C
:1014A00011870087F80180818F5F8083DF91CF9162
:1014B0001F910F910895D90112962D913C91139788
:1014C000E9014881598184179507A8F7DACFFC0113
:1014D00073836283918780874617570790F0421B7A
:1014E000530B8485958548175907C8F4BF016E5F73
:1014F0007F4F8091E5019091E6010E94310A80E0E2
:1015000008954217530718F46217730740F4BF0198
:101510006E5F7F4F8091E7019091E801EECF81E00F
:101520000895EF92FF920F931F93CF93DF93EC01F7
:101530008B017A016C857D85600F711F9801A70171
:10154000CE010E94670A811107C0DF91CF911F91E0
:101550000F91FF90EF9008958C859D85080F191FBE
:10156000E889F989CE010995E5CFEF92FF920F93B3
:101570001F93CF93DF938C017B01E091E701F09102
:10158000E8010580F681E02DC681D781CE01029663
:101590000E940D0A8A8982FF0FC0A701B801CE01FF
:1015A0000E94910AE889F989CE01DF91CF911F91BC
:1015B0000F91FF90EF9009948E7F8A8BF3CFE0918B
:1015C000E701F091E801808181110DC08091E50172
:1015D0009091E6019093E8018093E701F093E60192
:1015E000E093E50108950580F681E02D6FEF7FEF30
:1015F000808191810E94B50AE2CFFF920F931F93E1
:10160000CF93DF93EC01F62E0091E0021091E102FE
:101610008091BA019091BB0102960E940D0ACF3FC2
:10162000DC07E9F5FF20D9F1E091B102F091B202B7
:10163000A091BA01B091BB011596FC93EE9314975B
:10164000A091BA01B091BB018481958117969C93BA
:101650008E9316978091BA019091BB01A481B581B8
:10166000029613969C938E9312978091BA01909153
:10167000BB01029695838483E091BA01F091BB018E
:1016800080EB92E0938782878091B0028F5F809396
:10169000B002DF91CF911F910F91FF900895C00F7D
:1016A000D11FE091BA01F091BB01D383C283609155
:1016B000BA017091BB01C017D10768F48091AC02E8
:1016C0009091AD026E5F7F4FDF91CF911F910F918F
:1016D000FF900C94310A8091AE029091AF026E5F40
:1016E0007F4F0E94310A8091DF019091E001C8177D
:1016F000D90778F6D093E001C093DF01CACFFC018F
:101700000396928381832FEF3FEF34832383968365
:1017100085839087878310820895CF92DF92FF920E
:101720000F931F93CF93DF93EC01FA8C4C8D4111F3
:1017300072C088819981892B11F080E008C00C81EA
:101740001D810115110569F480E01D821C82F3944E
:10175000FA8EDF91CF911F910F91FF90DF90CF9084
:101760000895D80192968C919297815092968C937D
:10177000929756962C91569791969C91291721F302
:101780008111E2CF6801B2E0CB0ED11CC6010E94EC
:101790000D0AF80181A1868B482F50E024E030E04B
:1017A000241B350B3587248790910703981710F475
:1017B0008093070389E0849FD001859FB00D112499
:1017C000AD51BD4F11960D90BC91A02DF801B58380
:1017D000A48314962D913C911597378326831496F4
:1017E000ED91FC911597D382C2821596DC92CE9230
:1017F0001497D8015696EC915697E89FF001112462
:10180000ED51FD4F1B96FC93EE931A9780818F5FED
:10181000808381E09ACF50E08A819B810E943318B7
:101820008C8D2A813B81820F932F911D9B838A830C
:101830002C813D818217930708F47FCF888199819D
:101840009B838A837ACFEF92FF920F931F93CF935C
:10185000DF9300D0CDB7DEB79A838983FC01078D73
:1018600010A1F801928D838DE12C9817B8F4F68CB5
:10187000BE016F5F7F4FC8010E948D0BE82EFFEF06
:10188000FF1216C0F8018189882341F0C8014196F2
:101890000E944D09882311F0EE24E3948E2D0F90C1
:1018A0000F90DF91CF911F910F91FF90EF900895CE
:1018B000F394F801F68EF2CFEF92FF920F931F93FD
:1018C000CF93DF93EC010FB6F8940F921E8D7C013D
:1018D00081E1E80EF11C01E01116D4F08FEF8E8F3C
:1018E0000F900FBE0FB6F8940F921D8D7E0188E009
:1018F000E80EF11C01E01116F4F08FEF8D8F0F90C0
:101900000FBEDF91CF911F910F91FF90EF9008953F
:101910008F8D98A1892B41F0CE010E94230C81115B
:101920000093DC011150D8CF89898823B9F2C7010F
:101930000E944D09F4CF88858823F9F2C7010E94DF
:101940004D0981110093DC011150D5CFCF93DF9366
:10195000EC010FB6F8940F92888199812B8D4C8DF4
:10196000BC01249F600D711D11247D836C831A8E30
:101970009B838A832150330B429FB001439F700D9C
:101980001124860F971F9F838E838FEF8D8F8E8FED
:10199000CE0108960E947F0BCE0141960E947F0BDC
:1019A0000F900FBE81E0DF91CF9108950F920FB697
:1019B000F8940F921F9211242F923F924F925F92B0
:1019C0006F927F928F929F92AF92BF92CF92DF924F
:1019D000EF92FF920F931F932F933F934F935F9339
:1019E0006F937F938F939F93AF93BF93CF93DF9327
:1019F000EF93FF93A091BA01B091BB010DB60D9288
:101A00000EB60D928091DD01882321F081E0809354
:101A1000DC015FC01092DC01A091BA01B091BB0162
:101A2000E091BA01F091BB012D913C918789908D95
:101A300082179307A8F08091BA019091BB01809121
:101A4000BA019091BB01259A2D9A2FEF87EA91E672
:101A5000215080409040E1F700C000001D9AF5CF72
:101A60002091070389E001C02150422F50E0849F5C
:101A7000F001859FF00D1124ED51FD4F90819923C8
:101A800099F3A181B28112960D90BC91A02DB283E1
:101A9000A183289FC00111248A519D4FA817B9071F
:101AA00029F412968D919C919283818389E0849F81
:101AB000F001859FF00D1124ED51FD4F0180F28161
:101AC000E02D868197819093BB018093BA0120938A
:101AD0000703A091BA01B091BB01CD91CDBFDD91BB
:101AE000DEBFFF91EF91DF91CF91BF91AF919F91B9
:101AF0008F917F916F915F914F913F912F911F91A6
:101B00000F91FF90EF90DF90CF90BF90AF909F909C
:101B10008F907F906F905F904F903F902F901F908D
:101B20000F900FBE0F9008958F929F92BF92CF9209
:101B3000DF92EF92FF920F931F93CF93DF930FB635
:101B4000F8940F928091DD0181508093DD018091A6
:101B5000DD01882379F080E00F900FBEDF91CF91F7
:101B60001F910F91FF90EF90DF90CF90BF909F90CB
:101B70008F9008958091DF02882369F3E090C70277
:101B8000F090C802F0E0E0E039E041E08091C2026C
:101B900081115EC0EF2B11F00E940209E090DA0182
:101BA000F090DB01E114F10409F47DC189E0D82E45
:101BB000CC24C3940FEF1FEF8091DD01811161C12F
:101BC000C091E002D091E1024E018FEF881A980A8D
:101BD0009092E1028092E00281149104B9F4809124
:101BE000AE029091AF022091AC023091AD023093E1
:101BF000AF022093AE029093AD028093AC0280912D
:101C0000E2028F5F8093E2020E9402098091DF016D
:101C10009091E001B12C8816990608F026C1E09158
:101C2000BA01F091BB01E689DE9EF0011124ED516D
:101C3000FD4F8081823010F0BB24B3948091DC0191
:101C4000811103C0BB2009F425C1C092DC0122C16F
:101C5000D7011696ED91FC91A489B58966857785A3
:101C600080899189EB019D838C8380899189EC0126
:101C70007B836A83BF01645F7F4F11960D911C9136
:101C800012970617170721F412969C938E931197BB
:101C9000158A148A8C9181508C93A285B385848196
:101CA000958166817781EC017D836C836681778184
:101CB000EB019B838A83CF01029611960D911C91B3
:101CC00012970817190721F412967C936E931197B7
:101CD000138612862C9121502C93A68920910703FC
:101CE0002A1710F4A09307033A9FD0011124AD5195
:101CF000BD4F11960D90BC91A02DB583A483149671
:101D00006D917C9115977783668314966D917C9184
:101D10001597EB019B838A8315969C938E9314975A
:101D20009689939FD0011124AD51BD4FB387A287EF
:101D30008C918F5F8C93A091BA01B091BB015696A4
:101D40008C91981708F422CF4093DC011FCFE091CB
:101D5000AE02F091AF020580F681E02D0680F7819A
:101D6000E02D828193818816990628F49093E001F2
:101D70008093DF0154CFC285D385848195812681EC
:101D80003781DC0115963C932E9314972681378179
:101D9000D90113969C938E931297CF010296498195
:101DA0005A814817590711F43A83298313861286FA
:101DB000288121502883A489B5891097F9F02685B8
:101DC000378540895189E9015D834C834089518978
:101DD000EA013B832A8311966D917C9112979F01B2
:101DE000245F3F4F6217730721F412965C934E9362
:101DF0001197158A148A2C9121502C93A689209131
:101E000007032A1710F4A0930703DA9ED0011124C8
:101E1000AD51BD4F11960D90BC91A02DB583A483FB
:101E200014962D913C9115973783268314962D9106
:101E30003C911597E9019B838A8315969C938E9319
:101E4000149796899D9DD0011124AD51BD4FB38744
:101E5000A2878C918F5F8C93E091BA01F091BB01C6
:101E60008689981710F0BB24B394E091AE02F091EC
:101E7000AF02808181116BCF1093E0010093DF01ED
:101E8000CECE8091DA019091DB0101969093DB0137
:101E90008093DA01D1E0ED1AF10809F08DCE1092AD
:101EA000DB011092DA018091DC01882309F453CE22
:101EB0000E94D60C81E050CEAF92BF92CF92DF92BB
:101EC000EF92FF920F931F93CF93DF9300D000D038
:101ED0001F92CDB7DEB78C017B018FEF9FEF9D8303
:101EE0008C8380E0680198E0C90ED11C0FB6F8948D
:101EF0000F92F801228D938D291758F5828DB70125
:101F0000C8010E948D0BF801278D30A1232BC9F049
:101F1000C8010E94230C81110E94D60C0F900FBEA5
:101F200081E00F900F900F900F900F90DF91CF9165
:101F30001F910F91FF90EF90DF90CF90BF90AF90E7
:101F400008959189992339F3C80141960E944D095A
:101F5000E2CF2C813D81232B21F40F900FBE80E036
:101F6000E0CF811109C08091E20289838091E00273
:101F70009091E1029B838A830F900FBE0E94FC091F
:101F80000FB6F8940F92F801858D8F3F09F4158EE6
:101F9000F801868D8F3F09F4168E0F900FBEBE019B
:101FA0006C5F7F4FCE0101960E941A0981112AC0F1
:101FB0000FB6F8940F92F801928D838D0F900FBE9B
:101FC00098131AC0AC80BD806091BA017091BB01BA
:101FD000645F7F4FC6010E94310A61E0C5010E9423
:101FE000FD0AC8010E945C0C0E94940D811102C080
:101FF0000E94D60C81E07ACFC8010E945C0C0E943E
:10200000940DF8CFC8010E945C0C0E94940DA7CFDC
:10201000AF92BF92CF92DF92EF92FF920F931F93F6
:10202000CF93DF9300D000D01F92CDB7DEB78C01E5
:102030006B015D834C8380E0580191E1A90EB11CD6
:102040000FB6F8940F92F801F28CFF20C9F1448D7D
:102050004423B1F050E086819781840F951F9783C8
:102060008683248135818217930720F080819181B6
:1020700097838683F80166817781C6010E943318B1
:10208000FA94F801F28E8085882339F0C801089609
:102090000E944D0981110E94D60C0F900FBE81E065
:1020A0000F900F900F900F900F90DF91CF911F9195
:1020B0000F91FF90EF90DF90CF90BF90AF90089579
:1020C0002C813D81232B21F40F900FBE80E0E8CFBF
:1020D000811109C08091E20289838091E002909190
:1020E000E1029B838A830F900FBE0E94FC090FB60A
:1020F000F8940F92F801858D8F3F09F4158EF80141
:10210000868D8F3F09F4168E0F900FBEBE016C5F57
:102110007F4FCE0101960E941A09811125C0C80186
:102120000E94020A8823D1F0EC80FD806091BA0100
:102130007091BB01645F7F4FC5010E94310A61E06D
:10214000C7010E94FD0AC8010E945C0C0E94940D08
:10215000811102C00E94D60C81E072CFC8010E949A
:102160005C0C0E94940DF8CFC8010E945C0C0E9488
:10217000940DC8010E94020A882371F3A7CF0F9221
:102180000FB6F8940F921F9211242F923F924F9204
:102190005F926F927F928F929F92AF92BF92CF92F7
:1021A000DF92EF92FF920F931F932F933F934F93E2
:1021B0005F936F937F938F939F93AF93BF93CF93CF
:1021C000DF93EF93FF93A091BA01B091BB010DB6DD
:1021D0000D920EB60D9213BE8091DD018111F9C0F2
:1021E0008091E0029091E10201969093E102809348
:1021F000E002009781F52091AE023091AF0240914C
:10220000AC025091AD025093AF024093AE023093B6
:10221000AD022093AC022091E2022F5F2093E202F4
:10222000E091AE02F091AF022081211107C02FEFA3
:102230003FEF3093E0012093DF010DC0E091AE024B
:10224000F091AF020580F681E02D2081318130933D
:10225000E0012093DF012091DF013091E00182173E
:10226000930710F420E0A1C020E039E0D32EE091E4
:10227000AE02F091AF023081311107C08FEF9FEFB6
:102280009093E0018093DF0190C0E091AE02F09165
:10229000AF020580F681E02D0680F781E02D4281B6
:1022A00053818417950728F45093E0014093DF0190
:1022B0007CC0A285B3854481558166817781EA011E
:1022C0007D836C8366817781EB015B834A83AF01F9
:1022D0004E5F5F4F11960D911C91129704171507D1
:1022E00021F412967C936E931197138612863C917B
:1022F00031503C93A489B5891097F9F066857785AC
:1023000000891189EB011D830C8300891189E80183
:102310007B836A831196ED90FC901297BF01645FF6
:102320007F4FE616F70621F412961C930E93119731
:10233000158A148A3C9131503C93A6893091070349
:102340003A1710F4A0930703DA9ED0011124AD517F
:10235000BD4F11960D90BC91A02DB583A48314960A
:102360006D917C9115977783668314966D917C911E
:102370001597EB015B834A8315965C934E931497F4
:1023800046894D9DD0011124AD51BD4FB387A28721
:102390003C913F5F3C93E091BA01F091BB013689DB
:1023A000431708F464CF21E062CFE091BA01F091C5
:1023B000BB01E689D9E0ED9FF0011124ED51FD4FFD
:1023C0008081823008F021E08091DC0181110EC013
:1023D0000AC08091DA019091DB0101969093DB01B4
:1023E0008093DA016AC0222309F467C08091DD017D
:1023F000882321F081E08093DC015FC01092DC0132
:10240000A091BA01B091BB01E091BA01F091BB017A
:102410002D913C918789908D82179307A8F0809128
:10242000BA019091BB018091BA019091BB01259AAC
:102430002D9A2FEF87EA91E6215080409040E1F7F6
:1024400000C000001D9AF5CF2091070389E001C06C
:102450002150422F50E0849FF001859FF00D112400
:10246000ED51FD4F9081992399F3A181B28112968C
:102470000D90BC91A02DB283A183289FC00111248F
:102480008A519D4FA817B90729F412968D919C91F6
:102490009283818389E0849FF001859FF00D112450
:1024A000ED51FD4F0180F281E02D8681978190935F
:1024B000BB018093BA0120930703A091BA01B091A8
:1024C000BB01CD91CDBFDD91DEBFFF91EF91DF91DB
:1024D000CF91BF91AF919F918F917F916F915F91BC
:1024E0004F913F912F911F910F91FF90EF90DF90AF
:1024F000CF90BF90AF909F908F907F906F905F90A4
:102500004F903F902F901F900F900FBE0F90089507
:10251000CF93DF93009751F0EC010E94FC09CE01AC
:102520000E944D17DF91CF910C94940DDF91CF91C4
:102530000895CF93DF9300D000D01F92CDB7DEB7C0
:10254000E091E701F091E8011081F12CE12C1123D9
:1025500029F00580F681E02DE080F1800E94FC09E1
:102560000E94F2096C018091E1019091E201C8168C
:10257000D90608F04CC00E94DF0AD092E201C09256
:10258000E1010E94940D50E040E0BE016F5F7F4F7B
:102590008091E3019091E4010E940810882381F268
:1025A000898187FDF0CF0C811D81D8011A968D910C
:1025B0009C91892B21F0C80102960E940D0A0E946D
:1025C000F2097C018091E1019091E201E816F9069F
:1025D00010F40E94DF0AF092E201E092E101E98149
:1025E000E150E93080F60E2E000CFF0BE250FD4E5C
:1025F000D80152968C9152970C942618811381130E
:10260000C513AD13BF1381138113C513AD13D0923E
:10261000E201C092E101112351F0CE14DF0470F009
:102620000E94940DB601C7010E94B50AACCFE0919B
:10263000E501F091E601808161E0811160E00091A7
:10264000E3011091E4010FB6F8940F92D8015D9662
:102650008C915D978F3F11F45D961C92F801868DE9
:102660008F3F09F4168E0F900FBED8015A968C91A9
:102670005A9781113CC05296ED91FC91A091BA01FC
:10268000B091BB011F96FC93EE931E97A091BA01E7
:10269000B091BB018481958151969C938E93509704
:1026A0008091BA019091BB01A481B5810C961396DB
:1026B0009C938E9312978091BA019091BB010C96D6
:1026C00095838483E091BA01F091BB01C8014196E2
:1026D000958B848BF80181898F5F818BC7018C1961
:1026E0009D09662311F08FEF9FEF0E94FD0AC8013C
:1026F0000E945C0C0E94940D811145CF0E94D60C63
:1027000042CF8160F801828B2A813B816485758587
:10271000620F731FA701C8010E94670A882309F48A
:1027200032CFD80152968C91529782FF12C06A81A3
:102730007B811C968D919C91680F791FA701C80120
:102740000E94910AD8015096ED91FC91C80109951B
:102750001ACF8E7FF801828BF5CF816052968C93D1
:1027600052976A817B811D967C936E931C976E0DA8
:102770007F1D9701A701C8010E94670A04CF81FD50
:1027800004C0C8010E948812FECE8E7FF801828BA1
:10279000FACE00E010E08091DE0181110CC0809142
:1027A000E302823010F00E94D60C0115110599F356
:1027B0000E94F600F0CF0FB6F8940F92E091BE029F
:1027C000F091BF02C681D781CE0102960E940D0A08
:1027D0008091DF0281508093DF028091DE01815081
:1027E0008093DE010F900FBE8F89988D0E94881212
:1027F000CE010E948812CFCFCF93DF93EC010E94CD
:10280000FC09CE010E94B116EC010E94940D2097A4
:1028100069F4259A2D9A2FEF80E792E021508040AD
:102820009040E1F700C000001D9AF5CFCE01DF9186
:10283000CF9108957F928F929F92AF92BF92CF9245
:10284000DF92EF92FF920F931F93CF93DF93982E17
:10285000A92E762E872E7A01B22ECA010E94FC1371
:102860006C01892B09F4F2C088E290E00E94FC130D
:10287000EC01892B09F4E7C0D88ECF8AA70165EA5D
:1028800070E0C6010E943C1881E0E81AF108EF8967
:10289000F88DEE0DFF1D672D782DCE0149969B0119
:1028A000285F3F4FDB014D91BD01DC014D93CD0110
:1028B000AB0141505109DA014C91442319F06217E0
:1028C000730781F718A2BE8AB9A21AA21B861A86BC
:1028D0001D8A1C8AD987C88784E090E08B199109EA
:1028E0009D878C87DB8BCA8B84E09E012D5D3F4FDB
:1028F000D9011D928A95E9F71FA29082DF011197F5
:10290000AC9211971C92119780E88C9311971C92AE
:1029100057971C9211971C92B397F983E88301157E
:10292000110519F0F801D183C0830FB6F8940F9206
:102930008091DF028F5F8093DF028091BA019091D6
:10294000BB01892B09F091C0D093BB01C093BA01A0
:102950008091DF02813081F583EE92E00E947F0B4F
:102960008CEE92E00E947F0B85EF92E00E947F0B3D
:102970008EEF92E00E947F0B84ED92E00E947F0B2D
:102980008BEC92E00E947F0B82EC92E00E947F0B26
:1029900089EB92E00E947F0B80EB92E00E947F0B1C
:1029A00084ED92E09093AF028093AE028BEC92E0C4
:1029B0009093AD028093AC028091DD028F5F809393
:1029C000DD02AE89809107038A1710F4A0930703F4
:1029D00029E02A9FD0011124AD51BD4F11960D90D1
:1029E000BC91A02DBD83AC8314968D919C911597BD
:1029F0009F838E831496ED91FC911597CE010296DC
:102A00009383828315969C938E931497EE89E29F0D
:102A1000F0011124ED51FD4FFB87EA8780818F5F24
:102A200080830F900FBE8091DE02882351F0E091E9
:102A3000BA01F091BB0196898E89981710F40E9413
:102A4000D60C81E004C0C6010E9488128FEFDF918E
:102A5000CF911F910F91FF90EF90DF90CF90BF909B
:102A6000AF909F908F907F9008958091DE028111AA
:102A7000A3CFE091BA01F091BB0196898E898917A5
:102A800008F49ACFD093BB01C093BA0195CF0F93AE
:102A90001F93CF93DF9308ED11E020E040EC50E06E
:102AA0006DE771E089EC93E10E941A14813009F01E
:102AB000A8C00FB6F8940F928091E3019091E401C1
:102AC000892B09F044C08DEC91E00E947F0B84ECCF
:102AD00091E00E947F0B8DEC91E09093E801809350
:102AE000E70184EC91E09093E6018093E50183E5B2
:102AF00090E00E94FC13EC01009761F081969983AD
:102B000088838AE08B8F85E08C8FCE010E94A60C93
:102B100018A21F8ED093E401C093E3012097B9F06F
:102B20008091C0019091C1012091C2013091C301F7
:102B3000C217D30711F0892B51F482E891E09093EA
:102B4000C1018093C001D093C301C093C2010F9013
:102B50000FBE8091E3019091E401892B09F451C0EB
:102B600006ED11E023E045E550E067E871E089E912
:102B700092E10E941A14813009F043C0F8942FEFBB
:102B80003FEF3093E0012093DF018093DE0210924B
:102B9000E1021092E002A89588E190EC0FB6F8945B
:102BA000A895809360000FBE90936000A091BA0139
:102BB000B091BB01CD91CDBFDD91DEBFFF91EF9113
:102BC000DF91CF91BF91AF919F918F917F916F9145
:102BD0005F914F913F912F911F910F91FF90EF9037
:102BE000DF90CF90BF90AF909F908F907F906F902D
:102BF0005F904F903F902F901F900F900FBE0F90BF
:102C0000089580910001DF91CF911F910F91089558
:102C10000E94BF101895E8E0F3E01382128288EE5C
:102C200093E0A0E0B0E084839583A683B78323E19B
:102C300031E03183208325EC30E03587248724EC94
:102C400030E03787268720EC30E0318B208B21EC79
:102C500030E0338B228B22EC30E0358B248B26EC5A
:102C600030E0378B268B118E128E138E148EE5EA90
:102C7000F3E01382128284839583A683B78385E26F
:102C800091E091838083E1EBF3E01382128287E38A
:102C900091E09183808387E2848380E1808782E072
:102CA0008187128688E083870895789484B582604E
:102CB00084BD84B5816084BD85B5826085BD85B5E0
:102CC000816085BD80916E00816080936E0010925E
:102CD00081008091810082608093810080918100D9
:102CE000816080938100809180008160809380006A
:102CF0008091B10084608093B1008091B0008160C8
:102D00008093B00080917A00846080937A008091F3
:102D10007A00826080937A0080917A00816080934B
:102D20007A0080917A00806880937A001092C100C6
:102D300020910501309106018FEF98E0821B930BE3
:102D400090930201809301010E9445060E9447155D
:102D50000E944506C0E0D0E02097F1F30E94F60003
:102D6000FBCF0F931F93CF93DF938230910510F425
:102D700082E090E0E091BF03F091C00330E020E0FA
:102D8000B0E0A0E0309799F42115310509F44AC06C
:102D9000281B390B24303105D8F58A819B816115B8
:102DA000710589F1FB0193838283FE0111C040818B
:102DB00051810281138148175907E0F048175907DC
:102DC00099F4109761F012960C93129713961C9336
:102DD0003296CF01DF91CF911F910F91089500930B
:102DE000BF031093C003F4CF2115310551F04217F2
:102DF000530738F0A901DB019A01BD01DF01F80199
:102E0000C1CFEF01F9CF9093C0038093BF03CDCF23
:102E1000FE01E20FF31F8193919322503109398310
:102E20002883D7CF2091BD033091BE03232B41F4DB
:102E300020910301309104013093BE032093BD0320
:102E400020910101309102012115310541F42DB786
:102E50003EB74091050150910601241B350BE091CE
:102E6000BD03F091BE03E217F307A0F42E1B3F0B46
:102E70002817390778F0AC014E5F5F4F24173507EC
:102E800048F04E0F5F1F5093BE034093BD038193E4
:102E900091939FCFF0E0E0E09CCFCF93DF9300973A
:102EA000E9F0FC01329713821282A091BF03B09126
:102EB000C003ED0130E020E01097A1F420813181C2
:102EC000820F931F2091BD033091BE03281739074D
:102ED00009F061C0F093BE03E093BD03DF91CF9191
:102EE0000895EA01CE17DF07E8F54A815B819E016C
:102EF00041155105B1F7E901FB83EA8349915991E5
:102F0000C40FD51FEC17FD0761F4808191810296F3
:102F1000840F951FE90199838883828193819B8324
:102F20008A83F0E0E0E012968D919C9113970097D0
:102F3000B9F52D913C911197CD010296820F931F07
:102F40002091BD033091BE032817390739F6309719
:102F500051F51092C0031092BF03B093BE03A0932B
:102F6000BD03BCCFD383C28340815181840F951FA1
:102F7000C817D90761F44E5F5F4F88819981480F68
:102F8000591F518340838A819B81938382832115BA
:102F9000310509F0B0CFF093C003E093BF039ECF9B
:102FA000FD01DC01C0CF13821282D7CF052E97FB23
:102FB0001EF400940E94ED1757FD07D00E94F517EC
:102FC00007FC03D04EF40C94ED17509540953095C6
:102FD00021953F4F4F4F5F4F089590958095709585
:102FE00061957F4F8F4F9F4F0895A1E21A2EAA1B24
:102FF000BB1BFD010DC0AA1FBB1FEE1FFF1FA217A9
:10300000B307E407F50720F0A21BB30BE40BF50BA5
:10301000661F771F881F991F1A9469F7609570952E
:10302000809590959B01AC01BD01CF010895A29FB1
:10303000B001B39FC001A39F700D811D1124911D8C
:10304000B29F700D811D1124911D0895EE0FFF1F79
:103050000590F491E02D09940E941718B7FF089588
:10306000821B930B0895FB01DC0102C001900D92BD
:1030700041505040D8F70895DC0101C06D93415094
:103080005040E0F70895F894FFCF030000C103809B
:1030900000000040001400540000000000250182E0
:1030A00000AF007201E000BE00D200000000000688
:1030B00003D9021D04AF02D202BF02B00200000019
:1030C00000830482001D041C0450696E3A20002015
:1030D00056616C75653A20000D0A0054656D7020CC
:1030E0003D20002743004C49474854203D20004CD8
:1030F0005558004368616E6E656C5F3100436861CE
:103100006E6E656C5F300049444C4500546D7251E1
:1031100000546D722053766300446973706C61795A
:103120006461746100416E616C6F675265616450E7
:10313000696E3000416E616C6F6752656164506901
:043140006E310000EC
:107E0000112484B714BE81FFF0D085E080938100F7
:107E100082E08093C00088E18093C10086E0809377
:107E2000C20080E18093C4008EE0C9D0259A86E02C
:107E300020E33CEF91E0309385002093840096BBD3
:107E4000B09BFECF1D9AA8958150A9F7CC24DD24C4
:107E500088248394B5E0AB2EA1E19A2EF3E0BF2EE7
:107E6000A2D0813461F49FD0082FAFD0023811F036
:107E7000013811F484E001C083E08DD089C08234E0
:107E800011F484E103C0853419F485E0A6D080C0E4
:107E9000853579F488D0E82EFF2485D0082F10E0AE
:107EA000102F00270E291F29000F111F8ED06801E7
:107EB0006FC0863521F484E090D080E0DECF843638
:107EC00009F040C070D06FD0082F6DD080E0C81688
:107ED00080E7D80618F4F601B7BEE895C0E0D1E017
:107EE00062D089930C17E1F7F0E0CF16F0E7DF06D8
:107EF00018F0F601B7BEE89568D007B600FCFDCFD4
:107F0000A601A0E0B1E02C9130E011968C91119780
:107F100090E0982F8827822B932B1296FA010C0160
:107F200087BEE89511244E5F5F4FF1E0A038BF0790
:107F300051F7F601A7BEE89507B600FCFDCF97BE46
:107F4000E89526C08437B1F42ED02DD0F82E2BD052
:107F50003CD0F601EF2C8F010F5F1F4F84911BD097
:107F6000EA94F801C1F70894C11CD11CFA94CF0C13
:107F7000D11C0EC0853739F428D08EE10CD085E9AC
:107F80000AD08FE07ACF813511F488E018D01DD067
:107F900080E101D065CF982F8091C00085FFFCCF94
:107FA0009093C60008958091C00087FFFCCF809118
:107FB000C00084FD01C0A8958091C6000895E0E648
:107FC000F0E098E1908380830895EDDF803219F02E
:107FD00088E0F5DFFFCF84E1DECF1F93182FE3DFCA
:107FE0001150E9F7F2DF1F91089580E0E8DFEE27F6
:047FF000FF270994CA
:027FFE00040479
:00000001FF
